{
  "contractName": "Kittycontract",
  "abi": [
    {
      "anonymous": false,
      "inputs": [
        {
          "indexed": true,
          "internalType": "address",
          "name": "owner",
          "type": "address"
        },
        {
          "indexed": true,
          "internalType": "address",
          "name": "approved",
          "type": "address"
        },
        {
          "indexed": true,
          "internalType": "uint256",
          "name": "tokenId",
          "type": "uint256"
        }
      ],
      "name": "Approval",
      "type": "event"
    },
    {
      "anonymous": false,
      "inputs": [
        {
          "indexed": true,
          "internalType": "address",
          "name": "owner",
          "type": "address"
        },
        {
          "indexed": true,
          "internalType": "address",
          "name": "operator",
          "type": "address"
        },
        {
          "indexed": false,
          "internalType": "bool",
          "name": "approved",
          "type": "bool"
        }
      ],
      "name": "ApprovalForAll",
      "type": "event"
    },
    {
      "anonymous": false,
      "inputs": [
        {
          "indexed": false,
          "internalType": "address",
          "name": "owner",
          "type": "address"
        },
        {
          "indexed": false,
          "internalType": "uint256",
          "name": "kittenId",
          "type": "uint256"
        },
        {
          "indexed": false,
          "internalType": "uint256",
          "name": "mumId",
          "type": "uint256"
        },
        {
          "indexed": false,
          "internalType": "uint256",
          "name": "dadId",
          "type": "uint256"
        },
        {
          "indexed": false,
          "internalType": "uint256",
          "name": "genes",
          "type": "uint256"
        }
      ],
      "name": "Birth",
      "type": "event"
    },
    {
      "anonymous": false,
      "inputs": [
        {
          "indexed": true,
          "internalType": "address",
          "name": "from",
          "type": "address"
        },
        {
          "indexed": true,
          "internalType": "address",
          "name": "to",
          "type": "address"
        },
        {
          "indexed": true,
          "internalType": "uint256",
          "name": "tokenId",
          "type": "uint256"
        }
      ],
      "name": "Transfer",
      "type": "event"
    },
    {
      "constant": true,
      "inputs": [],
      "name": "CREATION_LIMIT_GEN0",
      "outputs": [
        {
          "internalType": "uint256",
          "name": "",
          "type": "uint256"
        }
      ],
      "payable": false,
      "stateMutability": "view",
      "type": "function"
    },
    {
      "constant": true,
      "inputs": [],
      "name": "_name",
      "outputs": [
        {
          "internalType": "string",
          "name": "",
          "type": "string"
        }
      ],
      "payable": false,
      "stateMutability": "view",
      "type": "function"
    },
    {
      "constant": true,
      "inputs": [],
      "name": "_symbol",
      "outputs": [
        {
          "internalType": "string",
          "name": "",
          "type": "string"
        }
      ],
      "payable": false,
      "stateMutability": "view",
      "type": "function"
    },
    {
      "constant": true,
      "inputs": [],
      "name": "gen0Counter",
      "outputs": [
        {
          "internalType": "uint256",
          "name": "",
          "type": "uint256"
        }
      ],
      "payable": false,
      "stateMutability": "view",
      "type": "function"
    },
    {
      "constant": true,
      "inputs": [
        {
          "internalType": "uint256",
          "name": "",
          "type": "uint256"
        }
      ],
      "name": "kitties",
      "outputs": [
        {
          "internalType": "uint256",
          "name": "genes",
          "type": "uint256"
        },
        {
          "internalType": "uint64",
          "name": "birthTime",
          "type": "uint64"
        },
        {
          "internalType": "uint32",
          "name": "mumId",
          "type": "uint32"
        },
        {
          "internalType": "uint32",
          "name": "dadId",
          "type": "uint32"
        },
        {
          "internalType": "uint16",
          "name": "generation",
          "type": "uint16"
        }
      ],
      "payable": false,
      "stateMutability": "view",
      "type": "function"
    },
    {
      "constant": true,
      "inputs": [
        {
          "internalType": "uint256",
          "name": "",
          "type": "uint256"
        }
      ],
      "name": "kittyIndexToApproved",
      "outputs": [
        {
          "internalType": "address",
          "name": "",
          "type": "address"
        }
      ],
      "payable": false,
      "stateMutability": "view",
      "type": "function"
    },
    {
      "constant": true,
      "inputs": [],
      "name": "owner",
      "outputs": [
        {
          "internalType": "address payable",
          "name": "",
          "type": "address"
        }
      ],
      "payable": false,
      "stateMutability": "view",
      "type": "function"
    },
    {
      "constant": true,
      "inputs": [
        {
          "internalType": "address",
          "name": "",
          "type": "address"
        }
      ],
      "name": "tokenHolders",
      "outputs": [
        {
          "internalType": "uint256",
          "name": "",
          "type": "uint256"
        }
      ],
      "payable": false,
      "stateMutability": "view",
      "type": "function"
    },
    {
      "constant": true,
      "inputs": [
        {
          "internalType": "bytes4",
          "name": "_interfaceId",
          "type": "bytes4"
        }
      ],
      "name": "supportsInterface",
      "outputs": [
        {
          "internalType": "bool",
          "name": "",
          "type": "bool"
        }
      ],
      "payable": false,
      "stateMutability": "view",
      "type": "function"
    },
    {
      "constant": false,
      "inputs": [
        {
          "internalType": "uint256",
          "name": "_genes",
          "type": "uint256"
        }
      ],
      "name": "createKittyGen0",
      "outputs": [
        {
          "internalType": "uint256",
          "name": "",
          "type": "uint256"
        }
      ],
      "payable": false,
      "stateMutability": "nonpayable",
      "type": "function"
    },
    {
      "constant": true,
      "inputs": [
        {
          "internalType": "uint256",
          "name": "_kittenId",
          "type": "uint256"
        }
      ],
      "name": "getKitty",
      "outputs": [
        {
          "internalType": "uint256",
          "name": "birthTime",
          "type": "uint256"
        },
        {
          "internalType": "uint256",
          "name": "mumId",
          "type": "uint256"
        },
        {
          "internalType": "uint256",
          "name": "dadId",
          "type": "uint256"
        },
        {
          "internalType": "uint256",
          "name": "generation",
          "type": "uint256"
        },
        {
          "internalType": "uint256",
          "name": "genes",
          "type": "uint256"
        },
        {
          "internalType": "address",
          "name": "owner",
          "type": "address"
        }
      ],
      "payable": false,
      "stateMutability": "view",
      "type": "function"
    },
    {
      "constant": true,
      "inputs": [
        {
          "internalType": "address",
          "name": "owner",
          "type": "address"
        }
      ],
      "name": "balanceOf",
      "outputs": [
        {
          "internalType": "uint256",
          "name": "balance",
          "type": "uint256"
        }
      ],
      "payable": false,
      "stateMutability": "view",
      "type": "function"
    },
    {
      "constant": true,
      "inputs": [],
      "name": "totalSupply",
      "outputs": [
        {
          "internalType": "uint256",
          "name": "total",
          "type": "uint256"
        }
      ],
      "payable": false,
      "stateMutability": "view",
      "type": "function"
    },
    {
      "constant": true,
      "inputs": [],
      "name": "name",
      "outputs": [
        {
          "internalType": "string",
          "name": "tokenName",
          "type": "string"
        }
      ],
      "payable": false,
      "stateMutability": "view",
      "type": "function"
    },
    {
      "constant": true,
      "inputs": [],
      "name": "symbol",
      "outputs": [
        {
          "internalType": "string",
          "name": "tokenSymbol",
          "type": "string"
        }
      ],
      "payable": false,
      "stateMutability": "view",
      "type": "function"
    },
    {
      "constant": true,
      "inputs": [
        {
          "internalType": "uint256",
          "name": "kittenId",
          "type": "uint256"
        }
      ],
      "name": "ownerOf",
      "outputs": [
        {
          "internalType": "address",
          "name": "owner",
          "type": "address"
        }
      ],
      "payable": false,
      "stateMutability": "view",
      "type": "function"
    },
    {
      "constant": false,
      "inputs": [
        {
          "internalType": "address",
          "name": "_to",
          "type": "address"
        },
        {
          "internalType": "uint256",
          "name": "kittenId",
          "type": "uint256"
        }
      ],
      "name": "transfer",
      "outputs": [],
      "payable": false,
      "stateMutability": "nonpayable",
      "type": "function"
    },
    {
      "constant": false,
      "inputs": [
        {
          "internalType": "address",
          "name": "_approved",
          "type": "address"
        },
        {
          "internalType": "uint256",
          "name": "kittenId",
          "type": "uint256"
        }
      ],
      "name": "approve",
      "outputs": [],
      "payable": false,
      "stateMutability": "nonpayable",
      "type": "function"
    },
    {
      "constant": false,
      "inputs": [
        {
          "internalType": "address",
          "name": "_operator",
          "type": "address"
        },
        {
          "internalType": "bool",
          "name": "_approved",
          "type": "bool"
        }
      ],
      "name": "setApprovalForAll",
      "outputs": [],
      "payable": false,
      "stateMutability": "nonpayable",
      "type": "function"
    },
    {
      "constant": true,
      "inputs": [
        {
          "internalType": "uint256",
          "name": "_kittenId",
          "type": "uint256"
        }
      ],
      "name": "getApproved",
      "outputs": [
        {
          "internalType": "address",
          "name": "",
          "type": "address"
        }
      ],
      "payable": false,
      "stateMutability": "view",
      "type": "function"
    },
    {
      "constant": true,
      "inputs": [
        {
          "internalType": "address",
          "name": "_owner",
          "type": "address"
        },
        {
          "internalType": "address",
          "name": "_operator",
          "type": "address"
        }
      ],
      "name": "isApprovedForAll",
      "outputs": [
        {
          "internalType": "bool",
          "name": "",
          "type": "bool"
        }
      ],
      "payable": false,
      "stateMutability": "view",
      "type": "function"
    },
    {
      "constant": false,
      "inputs": [
        {
          "internalType": "address",
          "name": "_from",
          "type": "address"
        },
        {
          "internalType": "address",
          "name": "_to",
          "type": "address"
        },
        {
          "internalType": "uint256",
          "name": "kittenId",
          "type": "uint256"
        }
      ],
      "name": "transferFrom",
      "outputs": [],
      "payable": false,
      "stateMutability": "nonpayable",
      "type": "function"
    },
    {
      "constant": false,
      "inputs": [
        {
          "internalType": "address",
          "name": "_from",
          "type": "address"
        },
        {
          "internalType": "address",
          "name": "_to",
          "type": "address"
        },
        {
          "internalType": "uint256",
          "name": "kittenId",
          "type": "uint256"
        },
        {
          "internalType": "bytes",
          "name": "data",
          "type": "bytes"
        }
      ],
      "name": "safeTransferFrom",
      "outputs": [],
      "payable": false,
      "stateMutability": "nonpayable",
      "type": "function"
    },
    {
      "constant": false,
      "inputs": [
        {
          "internalType": "address",
          "name": "_from",
          "type": "address"
        },
        {
          "internalType": "address",
          "name": "_to",
          "type": "address"
        },
        {
          "internalType": "uint256",
          "name": "kittenId",
          "type": "uint256"
        }
      ],
      "name": "safeTransferFrom",
      "outputs": [],
      "payable": false,
      "stateMutability": "nonpayable",
      "type": "function"
    }
  ],
  "bytecode": "0x6080604052336000806101000a81548173ffffffffffffffffffffffffffffffffffffffff021916908373ffffffffffffffffffffffffffffffffffffffff160217905550611d44806100536000396000f3fe608060405234801561001057600080fd5b50600436106101585760003560e01c80638da5cb5b116100c3578063b88d4fde1161007c578063b88d4fde14610825578063d28d88521461092a578063d5a776ca146109ad578063e985e9c5146109ef578063e98b7f4d14610a6b578063ef5e94aa14610afc57610158565b80638da5cb5b1461061957806395d89b4114610663578063a22cb465146106e6578063a9059cbb14610736578063b09f126614610784578063b48343301461080757610158565b806342842e0e1161011557806342842e0e1461038d578063481af3d3146103fb5780636352211e14610469578063638b5e53146104d757806370a082311461052f5780638cc51eda1461058757610158565b806301ffc9a71461015d57806306fdde03146101c2578063081812fc14610245578063095ea7b3146102b357806318160ddd1461030157806323b872dd1461031f575b600080fd5b6101a86004803603602081101561017357600080fd5b8101908080357bffffffffffffffffffffffffffffffffffffffffffffffffffffffff19169060200190929190505050610b1a565b604051808215151515815260200191505060405180910390f35b6101ca610bba565b6040518080602001828103825283818151815260200191508051906020019080838360005b8381101561020a5780820151818401526020810190506101ef565b50505050905090810190601f1680156102375780820380516001836020036101000a031916815260200191505b509250505060405180910390f35b6102716004803603602081101561025b57600080fd5b8101908080359060200190929190505050610bf7565b604051808273ffffffffffffffffffffffffffffffffffffffff1673ffffffffffffffffffffffffffffffffffffffff16815260200191505060405180910390f35b6102ff600480360360408110156102c957600080fd5b81019080803573ffffffffffffffffffffffffffffffffffffffff16906020019092919080359060200190929190505050610c45565b005b610309610cc1565b6040518082815260200191505060405180910390f35b61038b6004803603606081101561033557600080fd5b81019080803573ffffffffffffffffffffffffffffffffffffffff169060200190929190803573ffffffffffffffffffffffffffffffffffffffff16906020019092919080359060200190929190505050610cce565b005b6103f9600480360360608110156103a357600080fd5b81019080803573ffffffffffffffffffffffffffffffffffffffff169060200190929190803573ffffffffffffffffffffffffffffffffffffffff16906020019092919080359060200190929190505050610cf3565b005b6104276004803603602081101561041157600080fd5b8101908080359060200190929190505050610d13565b604051808273ffffffffffffffffffffffffffffffffffffffff1673ffffffffffffffffffffffffffffffffffffffff16815260200191505060405180910390f35b6104956004803603602081101561047f57600080fd5b8101908080359060200190929190505050610d46565b604051808273ffffffffffffffffffffffffffffffffffffffff1673ffffffffffffffffffffffffffffffffffffffff16815260200191505060405180910390f35b610519600480360360208110156104ed57600080fd5b81019080803573ffffffffffffffffffffffffffffffffffffffff169060200190929190505050610d83565b6040518082815260200191505060405180910390f35b6105716004803603602081101561054557600080fd5b81019080803573ffffffffffffffffffffffffffffffffffffffff169060200190929190505050610d9b565b6040518082815260200191505060405180910390f35b6105b36004803603602081101561059d57600080fd5b8101908080359060200190929190505050610de4565b604051808681526020018567ffffffffffffffff1667ffffffffffffffff1681526020018463ffffffff1663ffffffff1681526020018363ffffffff1663ffffffff1681526020018261ffff1661ffff1681526020019550505050505060405180910390f35b610621610e69565b604051808273ffffffffffffffffffffffffffffffffffffffff1673ffffffffffffffffffffffffffffffffffffffff16815260200191505060405180910390f35b61066b610e8e565b6040518080602001828103825283818151815260200191508051906020019080838360005b838110156106ab578082015181840152602081019050610690565b50505050905090810190601f1680156106d85780820380516001836020036101000a031916815260200191505b509250505060405180910390f35b610734600480360360408110156106fc57600080fd5b81019080803573ffffffffffffffffffffffffffffffffffffffff169060200190929190803515159060200190929190505050610ecb565b005b6107826004803603604081101561074c57600080fd5b81019080803573ffffffffffffffffffffffffffffffffffffffff16906020019092919080359060200190929190505050610f7c565b005b61078c61112f565b6040518080602001828103825283818151815260200191508051906020019080838360005b838110156107cc5780820151818401526020810190506107b1565b50505050905090810190601f1680156107f95780820380516001836020036101000a031916815260200191505b509250505060405180910390f35b61080f611168565b6040518082815260200191505060405180910390f35b6109286004803603608081101561083b57600080fd5b81019080803573ffffffffffffffffffffffffffffffffffffffff169060200190929190803573ffffffffffffffffffffffffffffffffffffffff16906020019092919080359060200190929190803590602001906401000000008111156108a257600080fd5b8201836020820111156108b457600080fd5b803590602001918460018302840111640100000000831117156108d657600080fd5b91908080601f016020809104026020016040519081016040528093929190818152602001838380828437600081840152601f19601f82011690508083019250505050505050919291929050505061116d565b005b610932611194565b6040518080602001828103825283818151815260200191508051906020019080838360005b83811015610972578082015181840152602081019050610957565b50505050905090810190601f16801561099f5780820380516001836020036101000a031916815260200191505b509250505060405180910390f35b6109d9600480360360208110156109c357600080fd5b81019080803590602001909291905050506111cd565b6040518082815260200191505060405180910390f35b610a5160048036036040811015610a0557600080fd5b81019080803573ffffffffffffffffffffffffffffffffffffffff169060200190929190803573ffffffffffffffffffffffffffffffffffffffff1690602001909291905050506112c8565b604051808215151515815260200191505060405180910390f35b610a9760048036036020811015610a8157600080fd5b810190808035906020019092919050505061135c565b604051808781526020018681526020018581526020018481526020018381526020018273ffffffffffffffffffffffffffffffffffffffff1673ffffffffffffffffffffffffffffffffffffffff168152602001965050505050505060405180910390f35b610b04611443565b6040518082815260200191505060405180910390f35b60006380ac58cd60e01b7bffffffffffffffffffffffffffffffffffffffffffffffffffffffff1916827bffffffffffffffffffffffffffffffffffffffffffffffffffffffff19161480610bb357506301ffc9a760e01b7bffffffffffffffffffffffffffffffffffffffffffffffffffffffff1916827bffffffffffffffffffffffffffffffffffffffffffffffffffffffff1916145b9050919050565b60606040518060400160405280600b81526020017f4b697474794b6974747973000000000000000000000000000000000000000000815250905090565b60006005805490508210610c0a57600080fd5b6003600083815260200190815260200160002060009054906101000a900473ffffffffffffffffffffffffffffffffffffffff169050919050565b610c4f3382611449565b610c5857600080fd5b610c6281836114b5565b808273ffffffffffffffffffffffffffffffffffffffff163373ffffffffffffffffffffffffffffffffffffffff167f8c5be1e5ebec7d5bd14f71427d1e84f3dd0314c0f7b2291e5b200ac8c7c3b92560405160405180910390a45050565b6000600580549050905090565b610cda3384848461150b565b610ce357600080fd5b610cee8383836115c6565b505050565b610d0e8383836040518060200160405280600081525061116d565b505050565b60036020528060005260406000206000915054906101000a900473ffffffffffffffffffffffffffffffffffffffff1681565b60006002600083815260200190815260200160002060009054906101000a900473ffffffffffffffffffffffffffffffffffffffff169050919050565b60016020528060005260406000206000915090505481565b6000600160008373ffffffffffffffffffffffffffffffffffffffff1673ffffffffffffffffffffffffffffffffffffffff168152602001908152602001600020549050919050565b60058181548110610df157fe5b90600052602060002090600202016000915090508060000154908060010160009054906101000a900467ffffffffffffffff16908060010160089054906101000a900463ffffffff169080600101600c9054906101000a900463ffffffff16908060010160109054906101000a900461ffff16905085565b6000809054906101000a900473ffffffffffffffffffffffffffffffffffffffff1681565b60606040518060400160405280600381526020017f4b544b0000000000000000000000000000000000000000000000000000000000815250905090565b3373ffffffffffffffffffffffffffffffffffffffff168273ffffffffffffffffffffffffffffffffffffffff161415610f0457600080fd5b610f0f338383611782565b8173ffffffffffffffffffffffffffffffffffffffff163373ffffffffffffffffffffffffffffffffffffffff167f17307eab39ab6107e8899845ad3d59bd9653f200f220920489ca2b5937696c3183604051808215151515815260200191505060405180910390a35050565b600073ffffffffffffffffffffffffffffffffffffffff168273ffffffffffffffffffffffffffffffffffffffff16141561101f576040517f08c379a00000000000000000000000000000000000000000000000000000000081526004018080602001828103825260158152602001807f6164647265737320646f65736e2774206578697374000000000000000000000081525060200191505060405180910390fd5b3073ffffffffffffffffffffffffffffffffffffffff168273ffffffffffffffffffffffffffffffffffffffff1614156110a4576040517f08c379a0000000000000000000000000000000000000000000000000000000008152600401808060200182810382526022815260200180611cee6022913960400191505060405180910390fd5b6110ae3382611449565b611120576040517f08c379a000000000000000000000000000000000000000000000000000000000815260040180806020018281038252601e8152602001807f746f6b656e20646f65736e27742062656c6f6e6720746f2063616c6c6572000081525060200191505060405180910390fd5b61112b3383836115c6565b5050565b6040518060400160405280600381526020017f4b544b000000000000000000000000000000000000000000000000000000000081525081565b600a81565b6111793385858561150b565b61118257600080fd5b61118e8484848461181b565b50505050565b6040518060400160405280600b81526020017f4b697474794b697474797300000000000000000000000000000000000000000081525081565b60008060009054906101000a900473ffffffffffffffffffffffffffffffffffffffff1673ffffffffffffffffffffffffffffffffffffffff163373ffffffffffffffffffffffffffffffffffffffff1614611291576040517f08c379a000000000000000000000000000000000000000000000000000000000815260040180806020018281038252601d8152602001807f43616c6c6572206d75737420626520636f6e7472616374206f776e657200000081525060200191505060405180910390fd5b600a600654106112a057600080fd5b6006600081548092919060010191905055506112c160008060008533611841565b9050919050565b6000600460008473ffffffffffffffffffffffffffffffffffffffff1673ffffffffffffffffffffffffffffffffffffffff16815260200190815260200160002060008373ffffffffffffffffffffffffffffffffffffffff1673ffffffffffffffffffffffffffffffffffffffff16815260200190815260200160002060009054906101000a900460ff16905092915050565b60008060008060008060006005888154811061137457fe5b906000526020600020906002020190508060010160009054906101000a900467ffffffffffffffff1667ffffffffffffffff1696508060010160089054906101000a900463ffffffff1663ffffffff16955080600101600c9054906101000a900463ffffffff1663ffffffff1694508060010160109054906101000a900461ffff1661ffff169350806000015492506002600089815260200190815260200160002060009054906101000a900473ffffffffffffffffffffffffffffffffffffffff1691505091939550919395565b60065481565b60008273ffffffffffffffffffffffffffffffffffffffff166002600084815260200190815260200160002060009054906101000a900473ffffffffffffffffffffffffffffffffffffffff1673ffffffffffffffffffffffffffffffffffffffff1614905092915050565b806003600084815260200190815260200160002060006101000a81548173ffffffffffffffffffffffffffffffffffffffff021916908373ffffffffffffffffffffffffffffffffffffffff1602179055505050565b60006115178483611449565b61152057600080fd5b600073ffffffffffffffffffffffffffffffffffffffff168373ffffffffffffffffffffffffffffffffffffffff16141561155a57600080fd5b600580549050821061156b57600080fd5b8373ffffffffffffffffffffffffffffffffffffffff168573ffffffffffffffffffffffffffffffffffffffff1614806115ab57506115aa8583611a0c565b5b806115bc57506115bb84866112c8565b5b9050949350505050565b600160008373ffffffffffffffffffffffffffffffffffffffff1673ffffffffffffffffffffffffffffffffffffffff16815260200190815260200160002060008154809291906001019190505550816002600083815260200190815260200160002060006101000a81548173ffffffffffffffffffffffffffffffffffffffff021916908373ffffffffffffffffffffffffffffffffffffffff160217905550600073ffffffffffffffffffffffffffffffffffffffff168373ffffffffffffffffffffffffffffffffffffffff161461172257600160008473ffffffffffffffffffffffffffffffffffffffff1673ffffffffffffffffffffffffffffffffffffffff16815260200190815260200160002060008154809291906001900391905055506003600082815260200190815260200160002060006101000a81549073ffffffffffffffffffffffffffffffffffffffff02191690555b808273ffffffffffffffffffffffffffffffffffffffff168473ffffffffffffffffffffffffffffffffffffffff167fddf252ad1be2c89b69c2b068fc378daa952ba7f163c4a11628f55a4df523b3ef60405160405180910390a4505050565b80600460008573ffffffffffffffffffffffffffffffffffffffff1673ffffffffffffffffffffffffffffffffffffffff16815260200190815260200160002060008473ffffffffffffffffffffffffffffffffffffffff1673ffffffffffffffffffffffffffffffffffffffff16815260200190815260200160002060006101000a81548160ff021916908315150217905550505050565b6118268484846115c6565b61183284848484611a78565b61183b57600080fd5b50505050565b600061184b611c75565b6040518060a001604052808581526020014267ffffffffffffffff1681526020018863ffffffff1681526020018763ffffffff1681526020018661ffff16815250905060006001600583908060018154018082558091505090600182039060005260206000209060020201600090919290919091506000820151816000015560208201518160010160006101000a81548167ffffffffffffffff021916908367ffffffffffffffff16021790555060408201518160010160086101000a81548163ffffffff021916908363ffffffff160217905550606082015181600101600c6101000a81548163ffffffff021916908363ffffffff16021790555060808201518160010160106101000a81548161ffff021916908361ffff16021790555050500390507f0a5311bd2a6608f08a180df2ee7c5946819a649b204b554bb8e39825b2c50ad584828a8a89604051808673ffffffffffffffffffffffffffffffffffffffff1673ffffffffffffffffffffffffffffffffffffffff1681526020018581526020018481526020018381526020018281526020019550505050505060405180910390a16119fe600085836115c6565b809250505095945050505050565b60008273ffffffffffffffffffffffffffffffffffffffff166003600084815260200190815260200160002060009054906101000a900473ffffffffffffffffffffffffffffffffffffffff1673ffffffffffffffffffffffffffffffffffffffff1614905092915050565b6000611a8384611c5c565b611a905760019050611c54565b60008473ffffffffffffffffffffffffffffffffffffffff1663150b7a02338887876040518563ffffffff1660e01b8152600401808573ffffffffffffffffffffffffffffffffffffffff1673ffffffffffffffffffffffffffffffffffffffff1681526020018473ffffffffffffffffffffffffffffffffffffffff1673ffffffffffffffffffffffffffffffffffffffff16815260200183815260200180602001828103825283818151815260200191508051906020019080838360005b83811015611b6b578082015181840152602081019050611b50565b50505050905090810190601f168015611b985780820380516001836020036101000a031916815260200191505b5095505050505050602060405180830381600087803b158015611bba57600080fd5b505af1158015611bce573d6000803e3d6000fd5b505050506040513d6020811015611be457600080fd5b810190808051906020019092919050505090506040518080611cbf602f9139602f01905060405180910390207bffffffffffffffffffffffffffffffffffffffffffffffffffffffff1916817bffffffffffffffffffffffffffffffffffffffffffffffffffffffff1916149150505b949350505050565b600080823b905060008163ffffffff1611915050919050565b6040518060a0016040528060008152602001600067ffffffffffffffff168152602001600063ffffffff168152602001600063ffffffff168152602001600061ffff168152509056fe6f6e455243373231526563656976656428616464726573732c616464726573732c75696e743235362c627974657329616464726573732063616e6e6f7420626520636f6e74726163742061646472657373a265627a7a7231582095aa52e13070435f20055722daba46c6e9303038abee34e98820b94b634d19b364736f6c634300050c0032",
  "source": "pragma solidity ^0.5.12;\n\nimport \"./IERC721.sol\";\nimport \"./IERC721Receiver.sol\";\nimport \"./Ownable.sol\";\n\ncontract Kittycontract is IERC721, Ownable {\n\n    mapping(address => uint256) public tokenHolders;\n    mapping(uint256 => address) kittyOwners;\n    mapping(uint256 => address) public kittyIndexToApproved;\n    mapping(address => mapping(address => bool)) private _operatorApprovals;\n\n    uint256 public constant CREATION_LIMIT_GEN0 = 10;\n    string public constant _name = \"KittyKittys\";\n    string public constant _symbol = \"KTK\";\n\n    bytes4 internal constant MAGIC_ERC721_RECEIVED = bytes4(keccak256(\"onERC721Received(address,address,uint256,bytes)\"));\n    bytes4 private constant _INTERFACE_ID_ERC721 = 0x80ac58cd;\n    bytes4 private constant _INTERFACE_ID_ERC165 = 0x01ffc9a7;\n\n    Kitty[] public kitties;\n\n    struct Kitty {\n        uint256 genes;\n        uint64 birthTime;\n        uint32 mumId;\n        uint32 dadId;\n        uint16 generation;\n    }\n\n    event Transfer(address indexed from, address indexed to, uint256 indexed tokenId);\n    event Approval(address indexed owner, address indexed approved, uint256 indexed tokenId);\n    event ApprovalForAll(address indexed owner, address indexed operator, bool approved);\n    \n    event Birth(\n        address owner, \n        uint256 kittenId, \n        uint256 mumId, \n        uint256 dadId, \n        uint256 genes\n    );\n\n    uint256 public gen0Counter;\n\n    function supportsInterface(bytes4 _interfaceId) external view returns (bool){\n        return ( _interfaceId == _INTERFACE_ID_ERC721 || _interfaceId == _INTERFACE_ID_ERC165);\n    }\n\n    function createKittyGen0(uint256 _genes) public onlyOwner returns (uint256) {\n       require(gen0Counter < CREATION_LIMIT_GEN0);\n       \n       gen0Counter++;\n\n       // Gen0 has no owners, they are owned by the contract or contract owner\n       return _createKitty(0,0,0,_genes,msg.sender);\n}\n\n    function _createKitty(\n        uint256 _mumId, \n        uint256 _dadId, \n        uint16 _generation, \n        uint256 _genes, \n        address _owner\n    )private returns (uint256) {\n            Kitty memory _kitty = Kitty({\n            genes: _genes,\n            birthTime: uint64(now),\n            mumId: uint32(_mumId),\n            dadId: uint32(_dadId),\n            generation: uint16(_generation)\n        });\n\n        uint256 newKittenId = kitties.push(_kitty) - 1;\n\n        emit Birth(_owner, newKittenId, _mumId, _dadId, _genes);\n        \n        _transfer(address(0), _owner, newKittenId);\n\n        return newKittenId;\n    }\n\n    function getKitty(uint256 _kittenId) public view returns (\n        uint256 birthTime, \n        uint256 mumId, \n        uint256 dadId, \n        uint256 generation,\n        uint256 genes, \n        address owner\n    )\n    {\n        Kitty storage kitty = kitties[_kittenId];\n\n        birthTime = uint256(kitty.birthTime); \n        mumId = uint256(kitty.mumId);\n        dadId = uint256(kitty.dadId);\n        generation = uint256(kitty.generation);\n        genes = uint256(kitty.genes);\n        owner = kittyOwners[_kittenId];\n        \n    }\n\n    function balanceOf(address owner) external view returns (uint256 balance){\n        return tokenHolders[owner];\n    }\n   \n    function totalSupply() public view returns (uint256 total){\n        return kitties.length;\n    }\n  \n    function name() external view returns (string memory tokenName){\n        return _name;\n    }\n\n    function symbol() external view returns (string memory tokenSymbol){\n        return _symbol;\n    }\n\n    function ownerOf(uint256 kittenId) external view returns (address owner){\n\n        return kittyOwners[kittenId];\n    }\n        \n    function transfer(address _to, uint256 kittenId) external{\n        require (_to != address(0), \"address doesn't exist\" );\n        require (_to != address(this), \"address cannot be contract address\");\n        require (_owns(msg.sender, kittenId), \"token doesn't belong to caller\");\n\n        _transfer(msg.sender, _to, kittenId);\n    }\n\n    function _transfer( address _from, address _to, uint256 kittenId) internal { \n        tokenHolders[_to]++;\n        kittyOwners[kittenId] = _to;\n\n        if (_from != address(0)){\n           tokenHolders[_from]--;\n           delete kittyIndexToApproved[kittenId];\n        }\n    \n        emit Transfer(_from, _to, kittenId);\n    }\n\n    function _owns(address _claimer, uint256 kittenId) internal view returns (bool){\n        return kittyOwners[kittenId] == _claimer;\n    }\n\n    function approve(address _approved, uint256 kittenId) external{\n        require(_owns(msg.sender, kittenId));\n\n        _approve(kittenId, _approved);\n        emit Approval(msg.sender, _approved, kittenId);\n\n    }\n\n    function setApprovalForAll(address _operator, bool _approved) public{\n        require(_operator != msg.sender);\n\n        _setApprovalForAll(msg.sender, _operator, _approved);\n        emit ApprovalForAll(msg.sender, _operator, _approved);\n    }\n\n    function getApproved(uint256 _kittenId) public view returns (address){\n        require (_kittenId < kitties.length);\n\n        return kittyIndexToApproved[_kittenId];\n    }\n\n    function isApprovedForAll(address _owner, address _operator) public view returns (bool){\n        return _operatorApprovals[_owner][_operator];\n    }\n\n    function _safeTransfer(address _from, address _to, uint256 kittenId, bytes memory _data) internal {\n        \n        _transfer(_from, _to, kittenId);\n        require(_checkERC721Support(_from, _to, kittenId, _data));\n    }   \n    function transferFrom(address _from, address _to, uint256 kittenId)  public {\n        require( _isApprovedOrOwner(msg.sender, _from, _to, kittenId) );  \n        _transfer(_from, _to, kittenId);\n    }\n\n    function safeTransferFrom(address _from, address _to, uint256 kittenId, bytes memory data) public {\n        require( _isApprovedOrOwner(msg.sender, _from, _to, kittenId) ); \n        _safeTransfer(_from, _to, kittenId, data);\n    }\n\n    function safeTransferFrom(address _from, address _to, uint256 kittenId) public {\n        safeTransferFrom(_from, _to, kittenId, \"\");\n    }\n\n    function _approve(uint256 _kittenId, address _approved) internal{\n        kittyIndexToApproved[_kittenId] = _approved;\n    }\n\n    function _setApprovalForAll(address _owner, address _operator, bool _approved) internal {\n        _operatorApprovals[_owner][_operator] = _approved;\n    }\n\n    function _checkERC721Support(address _from, address _to, uint256 kittenId, bytes memory _data) internal returns (bool) {\n        if (!_isContract(_to) ){\n            return true;\n        }\n        bytes4 returnData = IERC721Receiver(_to).onERC721Received(msg.sender, _from, kittenId, _data);\n        return returnData == MAGIC_ERC721_RECEIVED;\n    }\n\n    function _isContract(address _to) view internal returns (bool){\n        uint32 size;\n        assembly{\n            size := extcodesize(_to)\n        }\n        return size > 0;\n    }\n\n    function _approvedFor( address _claimant, uint256 kittenId) internal view returns (bool) {\n        return kittyIndexToApproved[kittenId] == _claimant;\n    }\n\n    function _isApprovedOrOwner( address _spender, address _from, address _to, uint256 kittenId) internal view returns (bool){\n        require (_owns(_from, kittenId)); //From owns the token\n        require (_to != address(0)); // TO address is not zero address\n        require (kittenId < kitties.length); //Token must exist\n\n        //Spender is from OR spender is approved for kittenId OR spender is operator from _from\n        return (_spender == _from\n        || _approvedFor(_spender, kittenId)\n        || isApprovedForAll(_from, _spender));\n    }\n}\n",
  "sourcePath": "/Users/user/Documents/cryptoKitties-clone/github/academy-kitties-template/contracts/KittyKitty.sol",
  "compiler": {
    "name": "solc",
    "version": "0.5.12+commit.7709ece9.Emscripten.clang"
  },
  "schemaVersion": "3.0.16",
  "updatedAt": "2021-04-08T19:58:52.777Z",
  "devdoc": {
    "methods": {}
  },
  "userdoc": {
    "methods": {}
  }
}