{
  "contractName": "Kittycontract",
  "abi": [
    {
      "inputs": [],
      "payable": false,
      "stateMutability": "nonpayable",
      "type": "constructor"
    },
    {
      "anonymous": false,
      "inputs": [
        {
          "indexed": true,
          "internalType": "address",
          "name": "owner",
          "type": "address"
        },
        {
          "indexed": true,
          "internalType": "address",
          "name": "approved",
          "type": "address"
        },
        {
          "indexed": true,
          "internalType": "uint256",
          "name": "tokenId",
          "type": "uint256"
        }
      ],
      "name": "Approval",
      "type": "event"
    },
    {
      "anonymous": false,
      "inputs": [
        {
          "indexed": true,
          "internalType": "address",
          "name": "owner",
          "type": "address"
        },
        {
          "indexed": true,
          "internalType": "address",
          "name": "operator",
          "type": "address"
        },
        {
          "indexed": false,
          "internalType": "bool",
          "name": "approved",
          "type": "bool"
        }
      ],
      "name": "ApprovalForAll",
      "type": "event"
    },
    {
      "anonymous": false,
      "inputs": [
        {
          "indexed": false,
          "internalType": "address",
          "name": "owner",
          "type": "address"
        },
        {
          "indexed": false,
          "internalType": "uint256",
          "name": "kittenId",
          "type": "uint256"
        },
        {
          "indexed": false,
          "internalType": "uint256",
          "name": "mumId",
          "type": "uint256"
        },
        {
          "indexed": false,
          "internalType": "uint256",
          "name": "dadId",
          "type": "uint256"
        },
        {
          "indexed": false,
          "internalType": "uint256",
          "name": "genes",
          "type": "uint256"
        }
      ],
      "name": "Birth",
      "type": "event"
    },
    {
      "anonymous": false,
      "inputs": [
        {
          "indexed": true,
          "internalType": "address",
          "name": "from",
          "type": "address"
        },
        {
          "indexed": true,
          "internalType": "address",
          "name": "to",
          "type": "address"
        },
        {
          "indexed": true,
          "internalType": "uint256",
          "name": "tokenId",
          "type": "uint256"
        }
      ],
      "name": "Transfer",
      "type": "event"
    },
    {
      "constant": true,
      "inputs": [],
      "name": "CREATION_LIMIT_GEN0",
      "outputs": [
        {
          "internalType": "uint256",
          "name": "",
          "type": "uint256"
        }
      ],
      "payable": false,
      "stateMutability": "view",
      "type": "function"
    },
    {
      "constant": true,
      "inputs": [],
      "name": "_name",
      "outputs": [
        {
          "internalType": "string",
          "name": "",
          "type": "string"
        }
      ],
      "payable": false,
      "stateMutability": "view",
      "type": "function"
    },
    {
      "constant": true,
      "inputs": [],
      "name": "_symbol",
      "outputs": [
        {
          "internalType": "string",
          "name": "",
          "type": "string"
        }
      ],
      "payable": false,
      "stateMutability": "view",
      "type": "function"
    },
    {
      "constant": true,
      "inputs": [],
      "name": "gen0Counter",
      "outputs": [
        {
          "internalType": "uint256",
          "name": "",
          "type": "uint256"
        }
      ],
      "payable": false,
      "stateMutability": "view",
      "type": "function"
    },
    {
      "constant": true,
      "inputs": [
        {
          "internalType": "uint256",
          "name": "",
          "type": "uint256"
        }
      ],
      "name": "kitties",
      "outputs": [
        {
          "internalType": "uint256",
          "name": "genes",
          "type": "uint256"
        },
        {
          "internalType": "uint64",
          "name": "birthTime",
          "type": "uint64"
        },
        {
          "internalType": "uint32",
          "name": "mumId",
          "type": "uint32"
        },
        {
          "internalType": "uint32",
          "name": "dadId",
          "type": "uint32"
        },
        {
          "internalType": "uint16",
          "name": "generation",
          "type": "uint16"
        }
      ],
      "payable": false,
      "stateMutability": "view",
      "type": "function"
    },
    {
      "constant": true,
      "inputs": [
        {
          "internalType": "uint256",
          "name": "",
          "type": "uint256"
        }
      ],
      "name": "kittyIndexToApproved",
      "outputs": [
        {
          "internalType": "address",
          "name": "",
          "type": "address"
        }
      ],
      "payable": false,
      "stateMutability": "view",
      "type": "function"
    },
    {
      "constant": true,
      "inputs": [],
      "name": "owner",
      "outputs": [
        {
          "internalType": "address payable",
          "name": "",
          "type": "address"
        }
      ],
      "payable": false,
      "stateMutability": "view",
      "type": "function"
    },
    {
      "constant": true,
      "inputs": [
        {
          "internalType": "address",
          "name": "",
          "type": "address"
        }
      ],
      "name": "tokenHolders",
      "outputs": [
        {
          "internalType": "uint256",
          "name": "",
          "type": "uint256"
        }
      ],
      "payable": false,
      "stateMutability": "view",
      "type": "function"
    },
    {
      "constant": false,
      "inputs": [
        {
          "internalType": "uint256",
          "name": "_dadId",
          "type": "uint256"
        },
        {
          "internalType": "uint256",
          "name": "_mumId",
          "type": "uint256"
        }
      ],
      "name": "breed",
      "outputs": [
        {
          "internalType": "uint256",
          "name": "",
          "type": "uint256"
        }
      ],
      "payable": false,
      "stateMutability": "nonpayable",
      "type": "function"
    },
    {
      "constant": true,
      "inputs": [
        {
          "internalType": "bytes4",
          "name": "_interfaceId",
          "type": "bytes4"
        }
      ],
      "name": "supportsInterface",
      "outputs": [
        {
          "internalType": "bool",
          "name": "",
          "type": "bool"
        }
      ],
      "payable": false,
      "stateMutability": "view",
      "type": "function"
    },
    {
      "constant": true,
      "inputs": [
        {
          "internalType": "address",
          "name": "owner",
          "type": "address"
        }
      ],
      "name": "balanceOf",
      "outputs": [
        {
          "internalType": "uint256",
          "name": "balance",
          "type": "uint256"
        }
      ],
      "payable": false,
      "stateMutability": "view",
      "type": "function"
    },
    {
      "constant": true,
      "inputs": [],
      "name": "totalSupply",
      "outputs": [
        {
          "internalType": "uint256",
          "name": "total",
          "type": "uint256"
        }
      ],
      "payable": false,
      "stateMutability": "view",
      "type": "function"
    },
    {
      "constant": true,
      "inputs": [],
      "name": "name",
      "outputs": [
        {
          "internalType": "string",
          "name": "tokenName",
          "type": "string"
        }
      ],
      "payable": false,
      "stateMutability": "view",
      "type": "function"
    },
    {
      "constant": true,
      "inputs": [],
      "name": "symbol",
      "outputs": [
        {
          "internalType": "string",
          "name": "tokenSymbol",
          "type": "string"
        }
      ],
      "payable": false,
      "stateMutability": "view",
      "type": "function"
    },
    {
      "constant": true,
      "inputs": [
        {
          "internalType": "uint256",
          "name": "kittenId",
          "type": "uint256"
        }
      ],
      "name": "ownerOf",
      "outputs": [
        {
          "internalType": "address",
          "name": "owner",
          "type": "address"
        }
      ],
      "payable": false,
      "stateMutability": "view",
      "type": "function"
    },
    {
      "constant": false,
      "inputs": [
        {
          "internalType": "address",
          "name": "_to",
          "type": "address"
        },
        {
          "internalType": "uint256",
          "name": "kittenId",
          "type": "uint256"
        }
      ],
      "name": "transfer",
      "outputs": [],
      "payable": false,
      "stateMutability": "nonpayable",
      "type": "function"
    },
    {
      "constant": false,
      "inputs": [
        {
          "internalType": "address",
          "name": "_approved",
          "type": "address"
        },
        {
          "internalType": "uint256",
          "name": "kittenId",
          "type": "uint256"
        }
      ],
      "name": "approve",
      "outputs": [],
      "payable": false,
      "stateMutability": "nonpayable",
      "type": "function"
    },
    {
      "constant": false,
      "inputs": [
        {
          "internalType": "address",
          "name": "_operator",
          "type": "address"
        },
        {
          "internalType": "bool",
          "name": "_approved",
          "type": "bool"
        }
      ],
      "name": "setApprovalForAll",
      "outputs": [],
      "payable": false,
      "stateMutability": "nonpayable",
      "type": "function"
    },
    {
      "constant": true,
      "inputs": [
        {
          "internalType": "uint256",
          "name": "_kittenId",
          "type": "uint256"
        }
      ],
      "name": "getApproved",
      "outputs": [
        {
          "internalType": "address",
          "name": "",
          "type": "address"
        }
      ],
      "payable": false,
      "stateMutability": "view",
      "type": "function"
    },
    {
      "constant": true,
      "inputs": [
        {
          "internalType": "address",
          "name": "_owner",
          "type": "address"
        },
        {
          "internalType": "address",
          "name": "_operator",
          "type": "address"
        }
      ],
      "name": "isApprovedForAll",
      "outputs": [
        {
          "internalType": "bool",
          "name": "",
          "type": "bool"
        }
      ],
      "payable": false,
      "stateMutability": "view",
      "type": "function"
    },
    {
      "constant": false,
      "inputs": [
        {
          "internalType": "address",
          "name": "_from",
          "type": "address"
        },
        {
          "internalType": "address",
          "name": "_to",
          "type": "address"
        },
        {
          "internalType": "uint256",
          "name": "kittenId",
          "type": "uint256"
        }
      ],
      "name": "transferFrom",
      "outputs": [],
      "payable": false,
      "stateMutability": "nonpayable",
      "type": "function"
    },
    {
      "constant": false,
      "inputs": [
        {
          "internalType": "address",
          "name": "_from",
          "type": "address"
        },
        {
          "internalType": "address",
          "name": "_to",
          "type": "address"
        },
        {
          "internalType": "uint256",
          "name": "kittenId",
          "type": "uint256"
        },
        {
          "internalType": "bytes",
          "name": "data",
          "type": "bytes"
        }
      ],
      "name": "safeTransferFrom",
      "outputs": [],
      "payable": false,
      "stateMutability": "nonpayable",
      "type": "function"
    },
    {
      "constant": false,
      "inputs": [
        {
          "internalType": "address",
          "name": "_from",
          "type": "address"
        },
        {
          "internalType": "address",
          "name": "_to",
          "type": "address"
        },
        {
          "internalType": "uint256",
          "name": "kittenId",
          "type": "uint256"
        }
      ],
      "name": "safeTransferFrom",
      "outputs": [],
      "payable": false,
      "stateMutability": "nonpayable",
      "type": "function"
    },
    {
      "constant": false,
      "inputs": [
        {
          "internalType": "uint256",
          "name": "_genes",
          "type": "uint256"
        }
      ],
      "name": "createKittyGen0",
      "outputs": [
        {
          "internalType": "uint256",
          "name": "",
          "type": "uint256"
        }
      ],
      "payable": false,
      "stateMutability": "nonpayable",
      "type": "function"
    },
    {
      "constant": true,
      "inputs": [
        {
          "internalType": "uint256",
          "name": "_kittenId",
          "type": "uint256"
        }
      ],
      "name": "getKitty",
      "outputs": [
        {
          "internalType": "uint256",
          "name": "genes",
          "type": "uint256"
        },
        {
          "internalType": "uint256",
          "name": "mumId",
          "type": "uint256"
        },
        {
          "internalType": "uint256",
          "name": "dadId",
          "type": "uint256"
        },
        {
          "internalType": "uint256",
          "name": "birthTime",
          "type": "uint256"
        },
        {
          "internalType": "uint256",
          "name": "generation",
          "type": "uint256"
        }
      ],
      "payable": false,
      "stateMutability": "view",
      "type": "function"
    },
    {
      "constant": true,
      "inputs": [
        {
          "internalType": "address",
          "name": "_owner",
          "type": "address"
        }
      ],
      "name": "tokensOfOwner",
      "outputs": [
        {
          "internalType": "uint256[]",
          "name": "ownerTokens",
          "type": "uint256[]"
        }
      ],
      "payable": false,
      "stateMutability": "view",
      "type": "function"
    }
  ],
  "bytecode": "0x60806040523480156200001157600080fd5b50336000806101000a81548173ffffffffffffffffffffffffffffffffffffffff021916908373ffffffffffffffffffffffffffffffffffffffff1602179055506200008a60008060007fffffffffffffffffffffffffffffffffffffffffffffffffffffffffffffffff60006200009160201b60201c565b506200046c565b60006200009d62000423565b6040518060a001604052808581526020014267ffffffffffffffff1681526020018863ffffffff1681526020018763ffffffff1681526020018661ffff16815250905060006001600583908060018154018082558091505090600182039060005260206000209060020201600090919290919091506000820151816000015560208201518160010160006101000a81548167ffffffffffffffff021916908367ffffffffffffffff16021790555060408201518160010160086101000a81548163ffffffff021916908363ffffffff160217905550606082015181600101600c6101000a81548163ffffffff021916908363ffffffff16021790555060808201518160010160106101000a81548161ffff021916908361ffff16021790555050500390507f0a5311bd2a6608f08a180df2ee7c5946819a649b204b554bb8e39825b2c50ad584828a8a89604051808673ffffffffffffffffffffffffffffffffffffffff1673ffffffffffffffffffffffffffffffffffffffff1681526020018581526020018481526020018381526020018281526020019550505050505060405180910390a162000258600085836200026660201b60201c565b809250505095945050505050565b600160008373ffffffffffffffffffffffffffffffffffffffff1673ffffffffffffffffffffffffffffffffffffffff16815260200190815260200160002060008154809291906001019190505550816002600083815260200190815260200160002060006101000a81548173ffffffffffffffffffffffffffffffffffffffff021916908373ffffffffffffffffffffffffffffffffffffffff160217905550600073ffffffffffffffffffffffffffffffffffffffff168373ffffffffffffffffffffffffffffffffffffffff1614620003c357600160008473ffffffffffffffffffffffffffffffffffffffff1673ffffffffffffffffffffffffffffffffffffffff16815260200190815260200160002060008154809291906001900391905055506003600082815260200190815260200160002060006101000a81549073ffffffffffffffffffffffffffffffffffffffff02191690555b808273ffffffffffffffffffffffffffffffffffffffff168473ffffffffffffffffffffffffffffffffffffffff167fddf252ad1be2c89b69c2b068fc378daa952ba7f163c4a11628f55a4df523b3ef60405160405180910390a4505050565b6040518060a0016040528060008152602001600067ffffffffffffffff168152602001600063ffffffff168152602001600063ffffffff168152602001600061ffff1681525090565b612115806200047c6000396000f3fe608060405234801561001057600080fd5b506004361061018e5760003560e01c80638da5cb5b116100de578063b88d4fde11610097578063d9ecad7b11610071578063d9ecad7b14610abe578063e985e9c514610b0a578063e98b7f4d14610b86578063ef5e94aa14610be45761018e565b8063b88d4fde146108f4578063d28d8852146109f9578063d5a776ca14610a7c5761018e565b80638da5cb5b146106e857806395d89b4114610732578063a22cb465146107b5578063a9059cbb14610805578063b09f126614610853578063b4834330146108d65761018e565b806342842e0e1161014b578063638b5e5311610125578063638b5e531461050d57806370a08231146105655780638462151c146105bd5780638cc51eda146106565761018e565b806342842e0e146103c3578063481af3d3146104315780636352211e1461049f5761018e565b806301ffc9a71461019357806306fdde03146101f8578063081812fc1461027b578063095ea7b3146102e957806318160ddd1461033757806323b872dd14610355575b600080fd5b6101de600480360360208110156101a957600080fd5b8101908080357bffffffffffffffffffffffffffffffffffffffffffffffffffffffff19169060200190929190505050610c02565b604051808215151515815260200191505060405180910390f35b610200610ca2565b6040518080602001828103825283818151815260200191508051906020019080838360005b83811015610240578082015181840152602081019050610225565b50505050905090810190601f16801561026d5780820380516001836020036101000a031916815260200191505b509250505060405180910390f35b6102a76004803603602081101561029157600080fd5b8101908080359060200190929190505050610cdf565b604051808273ffffffffffffffffffffffffffffffffffffffff1673ffffffffffffffffffffffffffffffffffffffff16815260200191505060405180910390f35b610335600480360360408110156102ff57600080fd5b81019080803573ffffffffffffffffffffffffffffffffffffffff16906020019092919080359060200190929190505050610d2d565b005b61033f610da9565b6040518082815260200191505060405180910390f35b6103c16004803603606081101561036b57600080fd5b81019080803573ffffffffffffffffffffffffffffffffffffffff169060200190929190803573ffffffffffffffffffffffffffffffffffffffff16906020019092919080359060200190929190505050610db6565b005b61042f600480360360608110156103d957600080fd5b81019080803573ffffffffffffffffffffffffffffffffffffffff169060200190929190803573ffffffffffffffffffffffffffffffffffffffff16906020019092919080359060200190929190505050610ddb565b005b61045d6004803603602081101561044757600080fd5b8101908080359060200190929190505050610dfb565b604051808273ffffffffffffffffffffffffffffffffffffffff1673ffffffffffffffffffffffffffffffffffffffff16815260200191505060405180910390f35b6104cb600480360360208110156104b557600080fd5b8101908080359060200190929190505050610e2e565b604051808273ffffffffffffffffffffffffffffffffffffffff1673ffffffffffffffffffffffffffffffffffffffff16815260200191505060405180910390f35b61054f6004803603602081101561052357600080fd5b81019080803573ffffffffffffffffffffffffffffffffffffffff169060200190929190505050610e6b565b6040518082815260200191505060405180910390f35b6105a76004803603602081101561057b57600080fd5b81019080803573ffffffffffffffffffffffffffffffffffffffff169060200190929190505050610e83565b6040518082815260200191505060405180910390f35b6105ff600480360360208110156105d357600080fd5b81019080803573ffffffffffffffffffffffffffffffffffffffff169060200190929190505050610ecc565b6040518080602001828103825283818151815260200191508051906020019060200280838360005b83811015610642578082015181840152602081019050610627565b505050509050019250505060405180910390f35b6106826004803603602081101561066c57600080fd5b8101908080359060200190929190505050611014565b604051808681526020018567ffffffffffffffff1667ffffffffffffffff1681526020018463ffffffff1663ffffffff1681526020018363ffffffff1663ffffffff1681526020018261ffff1661ffff1681526020019550505050505060405180910390f35b6106f0611099565b604051808273ffffffffffffffffffffffffffffffffffffffff1673ffffffffffffffffffffffffffffffffffffffff16815260200191505060405180910390f35b61073a6110be565b6040518080602001828103825283818151815260200191508051906020019080838360005b8381101561077a57808201518184015260208101905061075f565b50505050905090810190601f1680156107a75780820380516001836020036101000a031916815260200191505b509250505060405180910390f35b610803600480360360408110156107cb57600080fd5b81019080803573ffffffffffffffffffffffffffffffffffffffff1690602001909291908035151590602001909291905050506110fb565b005b6108516004803603604081101561081b57600080fd5b81019080803573ffffffffffffffffffffffffffffffffffffffff169060200190929190803590602001909291905050506111ac565b005b61085b61135f565b6040518080602001828103825283818151815260200191508051906020019080838360005b8381101561089b578082015181840152602081019050610880565b50505050905090810190601f1680156108c85780820380516001836020036101000a031916815260200191505b509250505060405180910390f35b6108de611398565b6040518082815260200191505060405180910390f35b6109f76004803603608081101561090a57600080fd5b81019080803573ffffffffffffffffffffffffffffffffffffffff169060200190929190803573ffffffffffffffffffffffffffffffffffffffff169060200190929190803590602001909291908035906020019064010000000081111561097157600080fd5b82018360208201111561098357600080fd5b803590602001918460018302840111640100000000831117156109a557600080fd5b91908080601f016020809104026020016040519081016040528093929190818152602001838380828437600081840152601f19601f82011690508083019250505050505050919291929050505061139d565b005b610a016113c4565b6040518080602001828103825283818151815260200191508051906020019080838360005b83811015610a41578082015181840152602081019050610a26565b50505050905090810190601f168015610a6e5780820380516001836020036101000a031916815260200191505b509250505060405180910390f35b610aa860048036036020811015610a9257600080fd5b81019080803590602001909291905050506113fd565b6040518082815260200191505060405180910390f35b610af460048036036040811015610ad457600080fd5b8101908080359060200190929190803590602001909291905050506114f8565b6040518082815260200191505060405180910390f35b610b6c60048036036040811015610b2057600080fd5b81019080803573ffffffffffffffffffffffffffffffffffffffff169060200190929190803573ffffffffffffffffffffffffffffffffffffffff1690602001909291905050506115ac565b604051808215151515815260200191505060405180910390f35b610bb260048036036020811015610b9c57600080fd5b8101908080359060200190929190505050611640565b604051808681526020018581526020018481526020018381526020018281526020019550505050505060405180910390f35b610bec6116ef565b6040518082815260200191505060405180910390f35b60006380ac58cd60e01b7bffffffffffffffffffffffffffffffffffffffffffffffffffffffff1916827bffffffffffffffffffffffffffffffffffffffffffffffffffffffff19161480610c9b57506301ffc9a760e01b7bffffffffffffffffffffffffffffffffffffffffffffffffffffffff1916827bffffffffffffffffffffffffffffffffffffffffffffffffffffffff1916145b9050919050565b60606040518060400160405280600b81526020017f4b697474794b6974747973000000000000000000000000000000000000000000815250905090565b60006005805490508210610cf257600080fd5b6003600083815260200190815260200160002060009054906101000a900473ffffffffffffffffffffffffffffffffffffffff169050919050565b610d3733826116f5565b610d4057600080fd5b610d4a8183611761565b808273ffffffffffffffffffffffffffffffffffffffff163373ffffffffffffffffffffffffffffffffffffffff167f8c5be1e5ebec7d5bd14f71427d1e84f3dd0314c0f7b2291e5b200ac8c7c3b92560405160405180910390a45050565b6000600580549050905090565b610dc2338484846117b7565b610dcb57600080fd5b610dd6838383611872565b505050565b610df68383836040518060200160405280600081525061139d565b505050565b60036020528060005260406000206000915054906101000a900473ffffffffffffffffffffffffffffffffffffffff1681565b60006002600083815260200190815260200160002060009054906101000a900473ffffffffffffffffffffffffffffffffffffffff169050919050565b60016020528060005260406000206000915090505481565b6000600160008373ffffffffffffffffffffffffffffffffffffffff1673ffffffffffffffffffffffffffffffffffffffff168152602001908152602001600020549050919050565b60606000610ed983610e83565b90506000811415610f1d576000604051908082528060200260200182016040528015610f145781602001602082028038833980820191505090505b5091505061100f565b606081604051908082528060200260200182016040528015610f4e5781602001602082028038833980820191505090505b5090506000610f5b610da9565b9050600080905060008090505b82811015611006578673ffffffffffffffffffffffffffffffffffffffff166002600083815260200190815260200160002060009054906101000a900473ffffffffffffffffffffffffffffffffffffffff1673ffffffffffffffffffffffffffffffffffffffff161415610ff95780848381518110610fe457fe5b60200260200101818152505081806001019250505b8080600101915050610f68565b83955050505050505b919050565b6005818154811061102157fe5b90600052602060002090600202016000915090508060000154908060010160009054906101000a900467ffffffffffffffff16908060010160089054906101000a900463ffffffff169080600101600c9054906101000a900463ffffffff16908060010160109054906101000a900461ffff16905085565b6000809054906101000a900473ffffffffffffffffffffffffffffffffffffffff1681565b60606040518060400160405280600381526020017f4b544b0000000000000000000000000000000000000000000000000000000000815250905090565b3373ffffffffffffffffffffffffffffffffffffffff168273ffffffffffffffffffffffffffffffffffffffff16141561113457600080fd5b61113f338383611a2e565b8173ffffffffffffffffffffffffffffffffffffffff163373ffffffffffffffffffffffffffffffffffffffff167f17307eab39ab6107e8899845ad3d59bd9653f200f220920489ca2b5937696c3183604051808215151515815260200191505060405180910390a35050565b600073ffffffffffffffffffffffffffffffffffffffff168273ffffffffffffffffffffffffffffffffffffffff16141561124f576040517f08c379a00000000000000000000000000000000000000000000000000000000081526004018080602001828103825260158152602001807f6164647265737320646f65736e2774206578697374000000000000000000000081525060200191505060405180910390fd5b3073ffffffffffffffffffffffffffffffffffffffff168273ffffffffffffffffffffffffffffffffffffffff1614156112d4576040517f08c379a00000000000000000000000000000000000000000000000000000000081526004018080602001828103825260228152602001806120bf6022913960400191505060405180910390fd5b6112de33826116f5565b611350576040517f08c379a000000000000000000000000000000000000000000000000000000000815260040180806020018281038252601e8152602001807f746f6b656e20646f65736e27742062656c6f6e6720746f2063616c6c6572000081525060200191505060405180910390fd5b61135b338383611872565b5050565b6040518060400160405280600381526020017f4b544b000000000000000000000000000000000000000000000000000000000081525081565b600a81565b6113a9338585856117b7565b6113b257600080fd5b6113be84848484611ac7565b50505050565b6040518060400160405280600b81526020017f4b697474794b697474797300000000000000000000000000000000000000000081525081565b60008060009054906101000a900473ffffffffffffffffffffffffffffffffffffffff1673ffffffffffffffffffffffffffffffffffffffff163373ffffffffffffffffffffffffffffffffffffffff16146114c1576040517f08c379a000000000000000000000000000000000000000000000000000000000815260040180806020018281038252601d8152602001807f43616c6c6572206d75737420626520636f6e7472616374206f776e657200000081525060200191505060405180910390fd5b600a600654106114d057600080fd5b6006600081548092919060010191905055506114f160008060008533611aed565b9050919050565b600061150433846116f5565b8015611516575061151533836116f5565b5b61151f57600080fd5b60008061152b85611640565b9450505050915060008061153e86611640565b9450505050915060006115518584611cb8565b9050600080905082851161156a5760018301905061158f565b8285111561158a576001850190506002818161158257fe5b04905061158e565b8290505b5b61159c888a838533611aed565b5081965050505050505092915050565b6000600460008473ffffffffffffffffffffffffffffffffffffffff1673ffffffffffffffffffffffffffffffffffffffff16815260200190815260200160002060008373ffffffffffffffffffffffffffffffffffffffff1673ffffffffffffffffffffffffffffffffffffffff16815260200190815260200160002060009054906101000a900460ff16905092915050565b6000806000806000806005878154811061165657fe5b90600052602060002090600202019050806000015495508060010160089054906101000a900463ffffffff1663ffffffff16945080600101600c9054906101000a900463ffffffff1663ffffffff1693508060010160009054906101000a900467ffffffffffffffff1667ffffffffffffffff1692508060010160109054906101000a900461ffff1661ffff1691505091939590929450565b60065481565b60008273ffffffffffffffffffffffffffffffffffffffff166002600084815260200190815260200160002060009054906101000a900473ffffffffffffffffffffffffffffffffffffffff1673ffffffffffffffffffffffffffffffffffffffff1614905092915050565b806003600084815260200190815260200160002060006101000a81548173ffffffffffffffffffffffffffffffffffffffff021916908373ffffffffffffffffffffffffffffffffffffffff1602179055505050565b60006117c384836116f5565b6117cc57600080fd5b600073ffffffffffffffffffffffffffffffffffffffff168373ffffffffffffffffffffffffffffffffffffffff16141561180657600080fd5b600580549050821061181757600080fd5b8373ffffffffffffffffffffffffffffffffffffffff168573ffffffffffffffffffffffffffffffffffffffff16148061185757506118568583611dba565b5b80611868575061186784866115ac565b5b9050949350505050565b600160008373ffffffffffffffffffffffffffffffffffffffff1673ffffffffffffffffffffffffffffffffffffffff16815260200190815260200160002060008154809291906001019190505550816002600083815260200190815260200160002060006101000a81548173ffffffffffffffffffffffffffffffffffffffff021916908373ffffffffffffffffffffffffffffffffffffffff160217905550600073ffffffffffffffffffffffffffffffffffffffff168373ffffffffffffffffffffffffffffffffffffffff16146119ce57600160008473ffffffffffffffffffffffffffffffffffffffff1673ffffffffffffffffffffffffffffffffffffffff16815260200190815260200160002060008154809291906001900391905055506003600082815260200190815260200160002060006101000a81549073ffffffffffffffffffffffffffffffffffffffff02191690555b808273ffffffffffffffffffffffffffffffffffffffff168473ffffffffffffffffffffffffffffffffffffffff167fddf252ad1be2c89b69c2b068fc378daa952ba7f163c4a11628f55a4df523b3ef60405160405180910390a4505050565b80600460008573ffffffffffffffffffffffffffffffffffffffff1673ffffffffffffffffffffffffffffffffffffffff16815260200190815260200160002060008473ffffffffffffffffffffffffffffffffffffffff1673ffffffffffffffffffffffffffffffffffffffff16815260200190815260200160002060006101000a81548160ff021916908315150217905550505050565b611ad2848484611872565b611ade84848484611e26565b611ae757600080fd5b50505050565b6000611af7612023565b6040518060a001604052808581526020014267ffffffffffffffff1681526020018863ffffffff1681526020018763ffffffff1681526020018661ffff16815250905060006001600583908060018154018082558091505090600182039060005260206000209060020201600090919290919091506000820151816000015560208201518160010160006101000a81548167ffffffffffffffff021916908367ffffffffffffffff16021790555060408201518160010160086101000a81548163ffffffff021916908363ffffffff160217905550606082015181600101600c6101000a81548163ffffffff021916908363ffffffff16021790555060808201518160010160106101000a81548161ffff021916908361ffff16021790555050500390507f0a5311bd2a6608f08a180df2ee7c5946819a649b204b554bb8e39825b2c50ad584828a8a89604051808673ffffffffffffffffffffffffffffffffffffffff1673ffffffffffffffffffffffffffffffffffffffff1681526020018581526020018481526020018381526020018281526020019550505050505060405180910390a1611caa60008583611872565b809250505095945050505050565b6000611cc261206c565b600060ff4281611cce57fe5b06905060008060079050600191505b60808211611d6c576000828460ff161614611d1a5760648781611cfc57fe5b0660ff16848260088110611d0c57fe5b602002018181525050611d3e565b60648681611d2457fe5b0660ff16848260088110611d3457fe5b6020020181815250505b60648681611d4857fe5b04955060648781611d5557fe5b049650808060019003915050600282029150611cdd565b60008092505b6008831015611dac57848360088110611d8757fe5b60200201518101905060078314611d9f576064810290505b8280600101935050611d72565b809550505050505092915050565b60008273ffffffffffffffffffffffffffffffffffffffff166003600084815260200190815260200160002060009054906101000a900473ffffffffffffffffffffffffffffffffffffffff1673ffffffffffffffffffffffffffffffffffffffff1614905092915050565b6000611e318461200a565b611e3e5760019050612002565b60008473ffffffffffffffffffffffffffffffffffffffff1663150b7a02338887876040518563ffffffff1660e01b8152600401808573ffffffffffffffffffffffffffffffffffffffff1673ffffffffffffffffffffffffffffffffffffffff1681526020018473ffffffffffffffffffffffffffffffffffffffff1673ffffffffffffffffffffffffffffffffffffffff16815260200183815260200180602001828103825283818151815260200191508051906020019080838360005b83811015611f19578082015181840152602081019050611efe565b50505050905090810190601f168015611f465780820380516001836020036101000a031916815260200191505b5095505050505050602060405180830381600087803b158015611f6857600080fd5b505af1158015611f7c573d6000803e3d6000fd5b505050506040513d6020811015611f9257600080fd5b810190808051906020019092919050505090506040518080612090602f9139602f01905060405180910390207bffffffffffffffffffffffffffffffffffffffffffffffffffffffff1916817bffffffffffffffffffffffffffffffffffffffffffffffffffffffff1916149150505b949350505050565b600080823b905060008163ffffffff1611915050919050565b6040518060a0016040528060008152602001600067ffffffffffffffff168152602001600063ffffffff168152602001600063ffffffff168152602001600061ffff1681525090565b60405180610100016040528060089060208202803883398082019150509050509056fe6f6e455243373231526563656976656428616464726573732c616464726573732c75696e743235362c627974657329616464726573732063616e6e6f7420626520636f6e74726163742061646472657373a265627a7a7231582094518a4faf4079a94f36e3625bcdee829409ebd0c1487a490a66f7328a0d3fea64736f6c634300050c0032",
  "source": "pragma solidity ^0.5.12;\n\nimport \"./IERC721.sol\";\nimport \"./IERC721Receiver.sol\";\nimport \"./Ownable.sol\";\n\ncontract Kittycontract is IERC721, Ownable {\n\n    mapping(address => uint256) public tokenHolders;\n    mapping(uint256 => address) kittyOwners;\n\n    mapping(uint256 => address) public kittyIndexToApproved;\n    mapping(address => mapping(address => bool)) private _operatorApprovals;\n\n    uint256 public constant CREATION_LIMIT_GEN0 = 10;\n    string public constant _name = \"KittyKittys\";\n    string public constant _symbol = \"KTK\";\n\n    bytes4 internal constant MAGIC_ERC721_RECEIVED = bytes4(keccak256(\"onERC721Received(address,address,uint256,bytes)\"));\n    bytes4 private constant _INTERFACE_ID_ERC721 = 0x80ac58cd;\n    bytes4 private constant _INTERFACE_ID_ERC165 = 0x01ffc9a7;\n\n    Kitty[] public kitties;\n\n    struct Kitty {\n        uint256 genes;\n        uint64 birthTime;\n        uint32 mumId;\n        uint32 dadId;\n        uint16 generation;\n    }\n\n    event Transfer(address indexed from, address indexed to, uint256 indexed tokenId);\n    event Approval(address indexed owner, address indexed approved, uint256 indexed tokenId);\n    event ApprovalForAll(address indexed owner, address indexed operator, bool approved);\n    \n    event Birth(\n        address owner, \n        uint256 kittenId, \n        uint256 mumId, \n        uint256 dadId, \n        uint256 genes\n    );\n\n    uint256 public gen0Counter;\n\n    constructor() public {\n        _createKitty(0, 0, 0, uint256(-1), address(0));\n    }\n\n    function breed(uint256 _dadId, uint256 _mumId) public returns (uint256){\n       require(_owns(msg.sender, _dadId) && _owns(msg.sender, _mumId));\n\n       ( uint256 dadDna,,,,uint256 dad_generation ) = getKitty(_dadId);\n       ( uint256 mumDna,,,,uint256 mum_generation ) = getKitty(_mumId);\n       uint256 newDna = _mixDna(dadDna, mumDna);\n       uint256 kidGen = 0;\n\n\n      if(dad_generation <= mum_generation){\n          kidGen = mum_generation + 1;\n      }\n      else if (dad_generation > mum_generation){\n          kidGen = dad_generation + 1;\n          kidGen /= 2;\n      } \n      else{\n          kidGen = mum_generation;\n      }\n\n       _createKitty( _mumId, _dadId, uint16(kidGen), newDna, msg.sender);\n\n       return newDna;\n    }\n\n    function supportsInterface(bytes4 _interfaceId) external view returns (bool){\n        return ( _interfaceId == _INTERFACE_ID_ERC721 || _interfaceId == _INTERFACE_ID_ERC165);\n    }\n\n\n    function balanceOf(address owner) public view returns (uint256 balance){\n        return tokenHolders[owner];\n    }\n   \n    function totalSupply() public view returns (uint256 total){\n        return kitties.length;\n    }\n  \n    function name() external view returns (string memory tokenName){\n        return _name;\n    }\n\n    function symbol() external view returns (string memory tokenSymbol){\n        return _symbol;\n    }\n\n    function ownerOf(uint256 kittenId) external view returns (address owner){\n\n        return kittyOwners[kittenId];\n    }\n        \n    function transfer(address _to, uint256 kittenId) external{\n        require (_to != address(0), \"address doesn't exist\" );\n        require (_to != address(this), \"address cannot be contract address\");\n        require (_owns(msg.sender, kittenId), \"token doesn't belong to caller\");\n\n        _transfer(msg.sender, _to, kittenId);\n    }\n\n    function _transfer( address _from, address _to, uint256 kittenId) internal { \n        tokenHolders[_to]++;\n        kittyOwners[kittenId] = _to;\n\n        if (_from != address(0)){\n           tokenHolders[_from]--;\n           delete kittyIndexToApproved[kittenId];\n        }\n    \n        emit Transfer(_from, _to, kittenId);\n    }\n\n    function _owns(address _claimer, uint256 kittenId) internal view returns (bool){\n        return kittyOwners[kittenId] == _claimer;\n    }\n\n    function approve(address _approved, uint256 kittenId) external{\n        require(_owns(msg.sender, kittenId));\n\n        _approve(kittenId, _approved);\n        emit Approval(msg.sender, _approved, kittenId);\n\n    }\n\n    function setApprovalForAll(address _operator, bool _approved) public{\n        require(_operator != msg.sender);\n\n        _setApprovalForAll(msg.sender, _operator, _approved);\n        emit ApprovalForAll(msg.sender, _operator, _approved);\n    }\n\n    function getApproved(uint256 _kittenId) public view returns (address){\n        require (_kittenId < kitties.length);\n\n        return kittyIndexToApproved[_kittenId];\n    }\n\n    function isApprovedForAll(address _owner, address _operator) public view returns (bool){\n        return _operatorApprovals[_owner][_operator];\n    }\n\n    function _safeTransfer(address _from, address _to, uint256 kittenId, bytes memory _data) internal {\n        \n        _transfer(_from, _to, kittenId);\n        require(_checkERC721Support(_from, _to, kittenId, _data));\n    }   \n    function transferFrom(address _from, address _to, uint256 kittenId)  public {\n        require( _isApprovedOrOwner(msg.sender, _from, _to, kittenId) );  \n        _transfer(_from, _to, kittenId);\n    }\n\n    function safeTransferFrom(address _from, address _to, uint256 kittenId, bytes memory data) public {\n        require( _isApprovedOrOwner(msg.sender, _from, _to, kittenId) ); \n        _safeTransfer(_from, _to, kittenId, data);\n    }\n\n    function safeTransferFrom(address _from, address _to, uint256 kittenId) public {\n        safeTransferFrom(_from, _to, kittenId, \"\");\n    }\n\n    function _approve(uint256 _kittenId, address _approved) internal{\n        kittyIndexToApproved[_kittenId] = _approved;\n    }\n\n    function _setApprovalForAll(address _owner, address _operator, bool _approved) internal {\n        _operatorApprovals[_owner][_operator] = _approved;\n    }\n\n    function _checkERC721Support(address _from, address _to, uint256 kittenId, bytes memory _data) internal returns (bool) {\n        if (!_isContract(_to) ){\n            return true;\n        }\n        bytes4 returnData = IERC721Receiver(_to).onERC721Received(msg.sender, _from, kittenId, _data);\n        return returnData == MAGIC_ERC721_RECEIVED;\n    }\n\n    function _isContract(address _to) view internal returns (bool){\n        uint32 size;\n        assembly{\n            size := extcodesize(_to)\n        }\n        return size > 0;\n    }\n\n    function _approvedFor( address _claimant, uint256 kittenId) internal view returns (bool) {\n        return kittyIndexToApproved[kittenId] == _claimant;\n    }\n\n    function _isApprovedOrOwner( address _spender, address _from, address _to, uint256 kittenId) internal view returns (bool){\n        require (_owns(_from, kittenId)); //From owns the token\n        require (_to != address(0)); // TO address is not zero address\n        require (kittenId < kitties.length); //Token must exist\n\n        //Spender is from OR spender is approved for kittenId OR spender is operator from _from\n        return (_spender == _from\n        || _approvedFor(_spender, kittenId)\n        || isApprovedForAll(_from, _spender));\n    }\n\n    function _mixDna(uint256 _dadDna, uint256 _mumDna) internal returns (uint256){\n       uint256[8] memory geneArray;\n       uint8 random = uint8( now % 255 );\n       uint256 i;\n       uint256 index = 7;\n       // Loop thru random number with bitwise operator(&)\n       for(i = 1; i <= 128; i = i*2){\n           if(random & i != 0){\n               geneArray[index] = uint8( _dadDna % 100 );\n           }\n           else{\n               geneArray[index] = uint8( _mumDna % 100 );\n           }\n           _mumDna = _mumDna / 100;\n           _dadDna = _dadDna / 100;\n           index --;\n       }\n       // create new Gene from geneArray\n       uint256 newGene;\n       for( i = 0; i < 8; i++){\n           newGene = newGene + geneArray[i];\n           if(i != 7){\n           newGene = newGene * 100;\n           }  \n       }\n       return newGene;\n    }\n\n    function createKittyGen0(uint256 _genes) public onlyOwner returns (uint256) {\n       require(gen0Counter < CREATION_LIMIT_GEN0);\n       \n       gen0Counter++;\n\n       // Gen0 has no owners, they are owned by the contract or contract owner\n       return _createKitty(0,0,0,_genes,msg.sender);\n    }\n\n    function _createKitty(\n        uint256 _mumId, \n        uint256 _dadId, \n        uint16 _generation, \n        uint256 _genes, \n        address _owner\n    )private returns (uint256) {\n            Kitty memory _kitty = Kitty({\n            genes: _genes,\n            birthTime: uint64(now),\n            mumId: uint32(_mumId),\n            dadId: uint32(_dadId),\n            generation: uint16(_generation)\n        });\n\n        uint256 newKittenId = kitties.push(_kitty) - 1;\n        \n        emit Birth(_owner, newKittenId, _mumId, _dadId, _genes);\n        \n        _transfer(address(0), _owner, newKittenId);\n\n        return newKittenId;\n    }\n\n    function getKitty(uint256 _kittenId) public view returns (\n        uint256 genes,\n        uint256 mumId, \n        uint256 dadId, \n        uint256 birthTime, \n        uint256 generation\n    )\n    {\n        Kitty storage kitty = kitties[_kittenId];\n        \n        genes = uint256(kitty.genes); \n        mumId = uint256(kitty.mumId);\n        dadId = uint256(kitty.dadId);\n        birthTime = uint256(kitty.birthTime); \n        generation = uint256(kitty.generation);\n    }\n\n    function tokensOfOwner(address _owner) public view returns(uint256[] memory ownerTokens) {\n        uint256 tokenCount = balanceOf(_owner);\n\n        if (tokenCount == 0) {\n            return new uint256[](0);\n        } \n        else {\n            uint256[] memory result = new uint256[](tokenCount);\n            uint256 totalCats = totalSupply();\n            uint256 resultIndex = 0;\n\n            uint256 catId;\n\n            for (catId = 0; catId < totalCats; catId++) {\n                if (kittyOwners[catId] == _owner) {\n                    result[resultIndex] = catId;\n                    resultIndex++;\n                }\n            }\n            return result;\n            }\n        }\n}",
  "sourcePath": "/Users/user/Documents/cryptoKitties-clone/github/academy-kitties-template/contracts/KittyKitty.sol",
  "compiler": {
    "name": "solc",
    "version": "0.5.12+commit.7709ece9.Emscripten.clang"
  },
  "schemaVersion": "3.0.16",
  "updatedAt": "2021-04-20T04:54:07.392Z",
  "devdoc": {
    "methods": {}
  },
  "userdoc": {
    "methods": {}
  }
}